{
  "_format": "hh-sol-artifact-1",
  "contractName": "ReviewContract",
  "sourceName": "contracts/Review.sol",
  "abi": [
    {
      "anonymous": false,
      "inputs": [
        {
          "indexed": true,
          "internalType": "uint256",
          "name": "reviewId",
          "type": "uint256"
        },
        {
          "indexed": true,
          "internalType": "address",
          "name": "reviewer",
          "type": "address"
        },
        {
          "indexed": true,
          "internalType": "uint256",
          "name": "productId",
          "type": "uint256"
        },
        {
          "indexed": false,
          "internalType": "uint256",
          "name": "rating",
          "type": "uint256"
        },
        {
          "indexed": false,
          "internalType": "string",
          "name": "content",
          "type": "string"
        }
      ],
      "name": "ReviewAdded",
      "type": "event"
    },
    {
      "inputs": [
        {
          "internalType": "uint256",
          "name": "_productId",
          "type": "uint256"
        },
        {
          "internalType": "uint256",
          "name": "_rating",
          "type": "uint256"
        },
        {
          "internalType": "string",
          "name": "_content",
          "type": "string"
        }
      ],
      "name": "addReview",
      "outputs": [],
      "stateMutability": "nonpayable",
      "type": "function"
    },
    {
      "inputs": [
        {
          "internalType": "uint256",
          "name": "_productId",
          "type": "uint256"
        }
      ],
      "name": "getReviewsByProductId",
      "outputs": [
        {
          "components": [
            {
              "internalType": "address",
              "name": "reviewer",
              "type": "address"
            },
            {
              "internalType": "uint256",
              "name": "productId",
              "type": "uint256"
            },
            {
              "internalType": "uint256",
              "name": "rating",
              "type": "uint256"
            },
            {
              "internalType": "string",
              "name": "content",
              "type": "string"
            }
          ],
          "internalType": "struct ReviewContract.Review[]",
          "name": "",
          "type": "tuple[]"
        }
      ],
      "stateMutability": "view",
      "type": "function"
    },
    {
      "inputs": [],
      "name": "reviewCount",
      "outputs": [
        {
          "internalType": "uint256",
          "name": "",
          "type": "uint256"
        }
      ],
      "stateMutability": "view",
      "type": "function"
    },
    {
      "inputs": [
        {
          "internalType": "uint256",
          "name": "",
          "type": "uint256"
        }
      ],
      "name": "reviews",
      "outputs": [
        {
          "internalType": "address",
          "name": "reviewer",
          "type": "address"
        },
        {
          "internalType": "uint256",
          "name": "productId",
          "type": "uint256"
        },
        {
          "internalType": "uint256",
          "name": "rating",
          "type": "uint256"
        },
        {
          "internalType": "string",
          "name": "content",
          "type": "string"
        }
      ],
      "stateMutability": "view",
      "type": "function"
    }
  ],
  "bytecode": "0x608060405234801561001057600080fd5b50610fe0806100206000396000f3fe608060405234801561001057600080fd5b506004361061004c5760003560e01c80633e9e27aa14610051578063908fdd131461006d578063e83ddcea1461009d578063eff5924f146100d0575b600080fd5b61006b6004803603810190610066919061079d565b6100ee565b005b6100876004803603810190610082919061080c565b6102b2565b6040516100949190610a2d565b60405180910390f35b6100b760048036038101906100b2919061080c565b6104f1565b6040516100c79493929190610ab7565b60405180910390f35b6100d86105c9565b6040516100e59190610b03565b60405180910390f35b6000815111610132576040517f08c379a000000000000000000000000000000000000000000000000000000000815260040161012990610b6a565b60405180910390fd5b60018210158015610144575060058211155b610183576040517f08c379a000000000000000000000000000000000000000000000000000000000815260040161017a90610bd6565b60405180910390fd5b60008081548092919061019590610c25565b919050555060405180608001604052803373ffffffffffffffffffffffffffffffffffffffff16815260200184815260200183815260200182815250600160008054815260200190815260200160002060008201518160000160006101000a81548173ffffffffffffffffffffffffffffffffffffffff021916908373ffffffffffffffffffffffffffffffffffffffff160217905550602082015181600101556040820151816002015560608201518160030190816102559190610e79565b50905050823373ffffffffffffffffffffffffffffffffffffffff166000547f8a1c7b080930c9da9d9b842838d379018d359046f7c5a5dd00c89fee29a870a085856040516102a5929190610f4b565b60405180910390a4505050565b6060600080600190505b600054811161030457836001600083815260200190815260200160002060010154036102f15781806102ed90610c25565b9250505b80806102fc90610c25565b9150506102bc565b5060008167ffffffffffffffff81111561032157610320610672565b5b60405190808252806020026020018201604052801561035a57816020015b6103476105cf565b81526020019060019003908161033f5790505b509050600080600190505b60005481116104e557856001600083815260200190815260200160002060010154036104d257600160008281526020019081526020016000206040518060800160405290816000820160009054906101000a900473ffffffffffffffffffffffffffffffffffffffff1673ffffffffffffffffffffffffffffffffffffffff1673ffffffffffffffffffffffffffffffffffffffff168152602001600182015481526020016002820154815260200160038201805461042390610c9c565b80601f016020809104026020016040519081016040528092919081815260200182805461044f90610c9c565b801561049c5780601f106104715761010080835404028352916020019161049c565b820191906000526020600020905b81548152906001019060200180831161047f57829003601f168201915b5050505050815250508383815181106104b8576104b7610f7b565b5b602002602001018190525081806104ce90610c25565b9250505b80806104dd90610c25565b915050610365565b50819350505050919050565b60016020528060005260406000206000915090508060000160009054906101000a900473ffffffffffffffffffffffffffffffffffffffff169080600101549080600201549080600301805461054690610c9c565b80601f016020809104026020016040519081016040528092919081815260200182805461057290610c9c565b80156105bf5780601f10610594576101008083540402835291602001916105bf565b820191906000526020600020905b8154815290600101906020018083116105a257829003601f168201915b5050505050905084565b60005481565b6040518060800160405280600073ffffffffffffffffffffffffffffffffffffffff1681526020016000815260200160008152602001606081525090565b6000604051905090565b600080fd5b600080fd5b6000819050919050565b61063481610621565b811461063f57600080fd5b50565b6000813590506106518161062b565b92915050565b600080fd5b600080fd5b6000601f19601f8301169050919050565b7f4e487b7100000000000000000000000000000000000000000000000000000000600052604160045260246000fd5b6106aa82610661565b810181811067ffffffffffffffff821117156106c9576106c8610672565b5b80604052505050565b60006106dc61060d565b90506106e882826106a1565b919050565b600067ffffffffffffffff82111561070857610707610672565b5b61071182610661565b9050602081019050919050565b82818337600083830152505050565b600061074061073b846106ed565b6106d2565b90508281526020810184848401111561075c5761075b61065c565b5b61076784828561071e565b509392505050565b600082601f83011261078457610783610657565b5b813561079484826020860161072d565b91505092915050565b6000806000606084860312156107b6576107b5610617565b5b60006107c486828701610642565b93505060206107d586828701610642565b925050604084013567ffffffffffffffff8111156107f6576107f561061c565b5b6108028682870161076f565b9150509250925092565b60006020828403121561082257610821610617565b5b600061083084828501610642565b91505092915050565b600081519050919050565b600082825260208201905092915050565b6000819050602082019050919050565b600073ffffffffffffffffffffffffffffffffffffffff82169050919050565b600061089082610865565b9050919050565b6108a081610885565b82525050565b6108af81610621565b82525050565b600081519050919050565b600082825260208201905092915050565b60005b838110156108ef5780820151818401526020810190506108d4565b60008484015250505050565b6000610906826108b5565b61091081856108c0565b93506109208185602086016108d1565b61092981610661565b840191505092915050565b600060808301600083015161094c6000860182610897565b50602083015161095f60208601826108a6565b50604083015161097260408601826108a6565b506060830151848203606086015261098a82826108fb565b9150508091505092915050565b60006109a38383610934565b905092915050565b6000602082019050919050565b60006109c382610839565b6109cd8185610844565b9350836020820285016109df85610855565b8060005b85811015610a1b57848403895281516109fc8582610997565b9450610a07836109ab565b925060208a019950506001810190506109e3565b50829750879550505050505092915050565b60006020820190508181036000830152610a4781846109b8565b905092915050565b610a5881610885565b82525050565b610a6781610621565b82525050565b600082825260208201905092915050565b6000610a89826108b5565b610a938185610a6d565b9350610aa38185602086016108d1565b610aac81610661565b840191505092915050565b6000608082019050610acc6000830187610a4f565b610ad96020830186610a5e565b610ae66040830185610a5e565b8181036060830152610af88184610a7e565b905095945050505050565b6000602082019050610b186000830184610a5e565b92915050565b7f52657669657720636f6e74656e742063616e6e6f7420626520656d7074790000600082015250565b6000610b54601e83610a6d565b9150610b5f82610b1e565b602082019050919050565b60006020820190508181036000830152610b8381610b47565b9050919050565b7f526174696e67206d757374206265206265747765656e203120616e6420350000600082015250565b6000610bc0601e83610a6d565b9150610bcb82610b8a565b602082019050919050565b60006020820190508181036000830152610bef81610bb3565b9050919050565b7f4e487b7100000000000000000000000000000000000000000000000000000000600052601160045260246000fd5b6000610c3082610621565b91507fffffffffffffffffffffffffffffffffffffffffffffffffffffffffffffffff8203610c6257610c61610bf6565b5b600182019050919050565b7f4e487b7100000000000000000000000000000000000000000000000000000000600052602260045260246000fd5b60006002820490506001821680610cb457607f821691505b602082108103610cc757610cc6610c6d565b5b50919050565b60008190508160005260206000209050919050565b60006020601f8301049050919050565b600082821b905092915050565b600060088302610d2f7fffffffffffffffffffffffffffffffffffffffffffffffffffffffffffffffff82610cf2565b610d398683610cf2565b95508019841693508086168417925050509392505050565b6000819050919050565b6000610d76610d71610d6c84610621565b610d51565b610621565b9050919050565b6000819050919050565b610d9083610d5b565b610da4610d9c82610d7d565b848454610cff565b825550505050565b600090565b610db9610dac565b610dc4818484610d87565b505050565b5b81811015610de857610ddd600082610db1565b600181019050610dca565b5050565b601f821115610e2d57610dfe81610ccd565b610e0784610ce2565b81016020851015610e16578190505b610e2a610e2285610ce2565b830182610dc9565b50505b505050565b600082821c905092915050565b6000610e5060001984600802610e32565b1980831691505092915050565b6000610e698383610e3f565b9150826002028217905092915050565b610e82826108b5565b67ffffffffffffffff811115610e9b57610e9a610672565b5b610ea58254610c9c565b610eb0828285610dec565b600060209050601f831160018114610ee35760008415610ed1578287015190505b610edb8582610e5d565b865550610f43565b601f198416610ef186610ccd565b60005b82811015610f1957848901518255600182019150602085019450602081019050610ef4565b86831015610f365784890151610f32601f891682610e3f565b8355505b6001600288020188555050505b505050505050565b6000604082019050610f606000830185610a5e565b8181036020830152610f728184610a7e565b90509392505050565b7f4e487b7100000000000000000000000000000000000000000000000000000000600052603260045260246000fdfea2646970667358221220a4825335ac6dd0e41c99b41c6f8f6abc11946b28f41c9aca6a6ca2313a17181a64736f6c63430008130033",
  "linkReferences": {},
  "deployedLinkReferences": {}
}